{
  "contractName": "Generator",
  "abi": [
    {
      "anonymous": false,
      "inputs": [
        {
          "indexed": true,
          "internalType": "address",
          "name": "previousOwner",
          "type": "address"
        },
        {
          "indexed": true,
          "internalType": "address",
          "name": "newOwner",
          "type": "address"
        }
      ],
      "name": "OwnershipTransferred",
      "type": "event"
    },
    {
      "inputs": [],
      "name": "owner",
      "outputs": [
        {
          "internalType": "address",
          "name": "",
          "type": "address"
        }
      ],
      "stateMutability": "view",
      "type": "function",
      "constant": true
    },
    {
      "inputs": [],
      "name": "renounceOwnership",
      "outputs": [],
      "stateMutability": "nonpayable",
      "type": "function"
    },
    {
      "inputs": [
        {
          "internalType": "address",
          "name": "newOwner",
          "type": "address"
        }
      ],
      "name": "transferOwnership",
      "outputs": [],
      "stateMutability": "nonpayable",
      "type": "function"
    },
    {
      "inputs": [
        {
          "internalType": "uint256",
          "name": "_supply",
          "type": "uint256"
        },
        {
          "internalType": "string",
          "name": "_name",
          "type": "string"
        },
        {
          "internalType": "string",
          "name": "_symbol",
          "type": "string"
        }
      ],
      "name": "createToken",
      "outputs": [
        {
          "internalType": "address",
          "name": "",
          "type": "address"
        }
      ],
      "stateMutability": "nonpayable",
      "type": "function"
    },
    {
      "inputs": [],
      "name": "destroy",
      "outputs": [],
      "stateMutability": "nonpayable",
      "type": "function"
    }
  ],
  "bytecode": "0x608060405234801561001057600080fd5b5061002d61002261003260201b60201c565b61003a60201b60201c565b6100fe565b600033905090565b60008060009054906101000a900473ffffffffffffffffffffffffffffffffffffffff169050816000806101000a81548173ffffffffffffffffffffffffffffffffffffffff021916908373ffffffffffffffffffffffffffffffffffffffff1602179055508173ffffffffffffffffffffffffffffffffffffffff168173ffffffffffffffffffffffffffffffffffffffff167f8be0079c531659141344cd1fd0a4f28419497f9722a3daafe3b4186f6b6457e060405160405180910390a35050565b6125dc8061010d6000396000f3fe60806040523480156200001157600080fd5b50600436106200005e5760003560e01c8063715018a6146200006357806383197ef0146200006f5780638da5cb5b146200007b578063b1037e78146200009d578063f2fde38b14620000d3575b600080fd5b6200006d620000f3565b005b6200007962000184565b005b6200008562000220565b60405162000094919062000530565b60405180910390f35b620000bb6004803603810190620000b59190620006fe565b62000249565b604051620000ca919062000530565b60405180910390f35b620000f16004803603810190620000eb9190620007c9565b6200030d565b005b620000fd62000411565b73ffffffffffffffffffffffffffffffffffffffff166200011d62000220565b73ffffffffffffffffffffffffffffffffffffffff161462000176576040517f08c379a00000000000000000000000000000000000000000000000000000000081526004016200016d906200085c565b60405180910390fd5b62000182600062000419565b565b6200018e62000220565b73ffffffffffffffffffffffffffffffffffffffff163373ffffffffffffffffffffffffffffffffffffffff1614620001fe576040517f08c379a0000000000000000000000000000000000000000000000000000000008152600401620001f590620008ce565b60405180910390fd5b6200020862000220565b73ffffffffffffffffffffffffffffffffffffffff16ff5b60008060009054906101000a900473ffffffffffffffffffffffffffffffffffffffff16905090565b6000808484846040516200025d90620004dd565b6200026b9392919062000983565b604051809103906000f08015801562000288573d6000803e3d6000fd5b50905060008173ffffffffffffffffffffffffffffffffffffffff166338cc48316040518163ffffffff1660e01b8152600401602060405180830381865afa158015620002d9573d6000803e3d6000fd5b505050506040513d601f19601f82011682018060405250810190620002ff9190620009e5565b905080925050509392505050565b6200031762000411565b73ffffffffffffffffffffffffffffffffffffffff166200033762000220565b73ffffffffffffffffffffffffffffffffffffffff161462000390576040517f08c379a000000000000000000000000000000000000000000000000000000000815260040162000387906200085c565b60405180910390fd5b600073ffffffffffffffffffffffffffffffffffffffff168173ffffffffffffffffffffffffffffffffffffffff16141562000403576040517f08c379a0000000000000000000000000000000000000000000000000000000008152600401620003fa9062000a8d565b60405180910390fd5b6200040e8162000419565b50565b600033905090565b60008060009054906101000a900473ffffffffffffffffffffffffffffffffffffffff169050816000806101000a81548173ffffffffffffffffffffffffffffffffffffffff021916908373ffffffffffffffffffffffffffffffffffffffff1602179055508173ffffffffffffffffffffffffffffffffffffffff168173ffffffffffffffffffffffffffffffffffffffff167f8be0079c531659141344cd1fd0a4f28419497f9722a3daafe3b4186f6b6457e060405160405180910390a35050565b611af78062000ab083390190565b600073ffffffffffffffffffffffffffffffffffffffff82169050919050565b60006200051882620004eb565b9050919050565b6200052a816200050b565b82525050565b60006020820190506200054760008301846200051f565b92915050565b6000604051905090565b600080fd5b600080fd5b6000819050919050565b620005768162000561565b81146200058257600080fd5b50565b60008135905062000596816200056b565b92915050565b600080fd5b600080fd5b6000601f19601f8301169050919050565b7f4e487b7100000000000000000000000000000000000000000000000000000000600052604160045260246000fd5b620005f182620005a6565b810181811067ffffffffffffffff82111715620006135762000612620005b7565b5b80604052505050565b6000620006286200054d565b9050620006368282620005e6565b919050565b600067ffffffffffffffff821115620006595762000658620005b7565b5b6200066482620005a6565b9050602081019050919050565b82818337600083830152505050565b60006200069762000691846200063b565b6200061c565b905082815260208101848484011115620006b657620006b5620005a1565b5b620006c384828562000671565b509392505050565b600082601f830112620006e357620006e26200059c565b5b8135620006f584826020860162000680565b91505092915050565b6000806000606084860312156200071a576200071962000557565b5b60006200072a8682870162000585565b935050602084013567ffffffffffffffff8111156200074e576200074d6200055c565b5b6200075c86828701620006cb565b925050604084013567ffffffffffffffff81111562000780576200077f6200055c565b5b6200078e86828701620006cb565b9150509250925092565b620007a3816200050b565b8114620007af57600080fd5b50565b600081359050620007c38162000798565b92915050565b600060208284031215620007e257620007e162000557565b5b6000620007f284828501620007b2565b91505092915050565b600082825260208201905092915050565b7f4f776e61626c653a2063616c6c6572206973206e6f7420746865206f776e6572600082015250565b600062000844602083620007fb565b915062000851826200080c565b602082019050919050565b60006020820190508181036000830152620008778162000835565b9050919050565b7f596f7520617265206e6f7420746865206f776e65720000000000000000000000600082015250565b6000620008b6601583620007fb565b9150620008c3826200087e565b602082019050919050565b60006020820190508181036000830152620008e981620008a7565b9050919050565b620008fb8162000561565b82525050565b600081519050919050565b60005b838110156200092c5780820151818401526020810190506200090f565b838111156200093c576000848401525b50505050565b60006200094f8262000901565b6200095b8185620007fb565b93506200096d8185602086016200090c565b6200097881620005a6565b840191505092915050565b60006060820190506200099a6000830186620008f0565b8181036020830152620009ae818562000942565b90508181036040830152620009c4818462000942565b9050949350505050565b600081519050620009df8162000798565b92915050565b600060208284031215620009fe57620009fd62000557565b5b600062000a0e84828501620009ce565b91505092915050565b7f4f776e61626c653a206e6577206f776e657220697320746865207a65726f206160008201527f6464726573730000000000000000000000000000000000000000000000000000602082015250565b600062000a75602683620007fb565b915062000a828262000a17565b604082019050919050565b6000602082019050818103600083015262000aa88162000a66565b905091905056fe60806040523480156200001157600080fd5b5060405162001af738038062001af78339818101604052810190620000379190620004a1565b818181600390805190602001906200005192919062000219565b5080600490805190602001906200006a92919062000219565b5050506200008d336018856200008191906200056a565b6200009660201b60201c565b5050506200073e565b600073ffffffffffffffffffffffffffffffffffffffff168273ffffffffffffffffffffffffffffffffffffffff16141562000109576040517f08c379a000000000000000000000000000000000000000000000000000000000815260040162000100906200062c565b60405180910390fd5b6200011d600083836200020f60201b60201c565b80600260008282546200013191906200064e565b92505081905550806000808473ffffffffffffffffffffffffffffffffffffffff1673ffffffffffffffffffffffffffffffffffffffff16815260200190815260200160002060008282546200018891906200064e565b925050819055508173ffffffffffffffffffffffffffffffffffffffff16600073ffffffffffffffffffffffffffffffffffffffff167fddf252ad1be2c89b69c2b068fc378daa952ba7f163c4a11628f55a4df523b3ef83604051620001ef9190620006bc565b60405180910390a36200020b600083836200021460201b60201c565b5050565b505050565b505050565b828054620002279062000708565b90600052602060002090601f0160209004810192826200024b576000855562000297565b82601f106200026657805160ff191683800117855562000297565b8280016001018555821562000297579182015b828111156200029657825182559160200191906001019062000279565b5b509050620002a69190620002aa565b5090565b5b80821115620002c5576000816000905550600101620002ab565b5090565b6000604051905090565b600080fd5b600080fd5b6000819050919050565b620002f281620002dd565b8114620002fe57600080fd5b50565b6000815190506200031281620002e7565b92915050565b600080fd5b600080fd5b6000601f19601f8301169050919050565b7f4e487b7100000000000000000000000000000000000000000000000000000000600052604160045260246000fd5b6200036d8262000322565b810181811067ffffffffffffffff821117156200038f576200038e62000333565b5b80604052505050565b6000620003a4620002c9565b9050620003b2828262000362565b919050565b600067ffffffffffffffff821115620003d557620003d462000333565b5b620003e08262000322565b9050602081019050919050565b60005b838110156200040d578082015181840152602081019050620003f0565b838111156200041d576000848401525b50505050565b60006200043a6200043484620003b7565b62000398565b9050828152602081018484840111156200045957620004586200031d565b5b62000466848285620003ed565b509392505050565b600082601f83011262000486576200048562000318565b5b81516200049884826020860162000423565b91505092915050565b600080600060608486031215620004bd57620004bc620002d3565b5b6000620004cd8682870162000301565b935050602084015167ffffffffffffffff811115620004f157620004f0620002d8565b5b620004ff868287016200046e565b925050604084015167ffffffffffffffff811115620005235762000522620002d8565b5b62000531868287016200046e565b9150509250925092565b7f4e487b7100000000000000000000000000000000000000000000000000000000600052601160045260246000fd5b60006200057782620002dd565b91506200058483620002dd565b9250817fffffffffffffffffffffffffffffffffffffffffffffffffffffffffffffffff0483118215151615620005c057620005bf6200053b565b5b828202905092915050565b600082825260208201905092915050565b7f45524332303a206d696e7420746f20746865207a65726f206164647265737300600082015250565b600062000614601f83620005cb565b91506200062182620005dc565b602082019050919050565b60006020820190508181036000830152620006478162000605565b9050919050565b60006200065b82620002dd565b91506200066883620002dd565b9250827fffffffffffffffffffffffffffffffffffffffffffffffffffffffffffffffff03821115620006a0576200069f6200053b565b5b828201905092915050565b620006b681620002dd565b82525050565b6000602082019050620006d36000830184620006ab565b92915050565b7f4e487b7100000000000000000000000000000000000000000000000000000000600052602260045260246000fd5b600060028204905060018216806200072157607f821691505b60208210811415620007385762000737620006d9565b5b50919050565b6113a9806200074e6000396000f3fe608060405234801561001057600080fd5b50600436106100b45760003560e01c80633950935111610071578063395093511461019157806370a08231146101c157806395d89b41146101f1578063a457c2d71461020f578063a9059cbb1461023f578063dd62ed3e1461026f576100b4565b806306fdde03146100b9578063095ea7b3146100d757806318160ddd1461010757806323b872dd14610125578063313ce5671461015557806338cc483114610173575b600080fd5b6100c161029f565b6040516100ce9190610c39565b60405180910390f35b6100f160048036038101906100ec9190610cf4565b610331565b6040516100fe9190610d4f565b60405180910390f35b61010f610354565b60405161011c9190610d79565b60405180910390f35b61013f600480360381019061013a9190610d94565b61035e565b60405161014c9190610d4f565b60405180910390f35b61015d61038d565b60405161016a9190610e03565b60405180910390f35b61017b610396565b6040516101889190610e2d565b60405180910390f35b6101ab60048036038101906101a69190610cf4565b61039e565b6040516101b89190610d4f565b60405180910390f35b6101db60048036038101906101d69190610e48565b610448565b6040516101e89190610d79565b60405180910390f35b6101f9610490565b6040516102069190610c39565b60405180910390f35b61022960048036038101906102249190610cf4565b610522565b6040516102369190610d4f565b60405180910390f35b61025960048036038101906102549190610cf4565b61060c565b6040516102669190610d4f565b60405180910390f35b61028960048036038101906102849190610e75565b61062f565b6040516102969190610d79565b60405180910390f35b6060600380546102ae90610ee4565b80601f01602080910402602001604051908101604052809291908181526020018280546102da90610ee4565b80156103275780601f106102fc57610100808354040283529160200191610327565b820191906000526020600020905b81548152906001019060200180831161030a57829003601f168201915b5050505050905090565b60008061033c6106b6565b90506103498185856106be565b600191505092915050565b6000600254905090565b6000806103696106b6565b9050610376858285610889565b610381858585610915565b60019150509392505050565b60006012905090565b600030905090565b6000806103a96106b6565b905061043d818585600160008673ffffffffffffffffffffffffffffffffffffffff1673ffffffffffffffffffffffffffffffffffffffff16815260200190815260200160002060008973ffffffffffffffffffffffffffffffffffffffff1673ffffffffffffffffffffffffffffffffffffffff168152602001908152602001600020546104389190610f45565b6106be565b600191505092915050565b60008060008373ffffffffffffffffffffffffffffffffffffffff1673ffffffffffffffffffffffffffffffffffffffff168152602001908152602001600020549050919050565b60606004805461049f90610ee4565b80601f01602080910402602001604051908101604052809291908181526020018280546104cb90610ee4565b80156105185780601f106104ed57610100808354040283529160200191610518565b820191906000526020600020905b8154815290600101906020018083116104fb57829003601f168201915b5050505050905090565b60008061052d6106b6565b90506000600160008373ffffffffffffffffffffffffffffffffffffffff1673ffffffffffffffffffffffffffffffffffffffff16815260200190815260200160002060008673ffffffffffffffffffffffffffffffffffffffff1673ffffffffffffffffffffffffffffffffffffffff168152602001908152602001600020549050838110156105f3576040517f08c379a00000000000000000000000000000000000000000000000000000000081526004016105ea9061100d565b60405180910390fd5b61060082868684036106be565b60019250505092915050565b6000806106176106b6565b9050610624818585610915565b600191505092915050565b6000600160008473ffffffffffffffffffffffffffffffffffffffff1673ffffffffffffffffffffffffffffffffffffffff16815260200190815260200160002060008373ffffffffffffffffffffffffffffffffffffffff1673ffffffffffffffffffffffffffffffffffffffff16815260200190815260200160002054905092915050565b600033905090565b600073ffffffffffffffffffffffffffffffffffffffff168373ffffffffffffffffffffffffffffffffffffffff16141561072e576040517f08c379a00000000000000000000000000000000000000000000000000000000081526004016107259061109f565b60405180910390fd5b600073ffffffffffffffffffffffffffffffffffffffff168273ffffffffffffffffffffffffffffffffffffffff16141561079e576040517f08c379a000000000000000000000000000000000000000000000000000000000815260040161079590611131565b60405180910390fd5b80600160008573ffffffffffffffffffffffffffffffffffffffff1673ffffffffffffffffffffffffffffffffffffffff16815260200190815260200160002060008473ffffffffffffffffffffffffffffffffffffffff1673ffffffffffffffffffffffffffffffffffffffff168152602001908152602001600020819055508173ffffffffffffffffffffffffffffffffffffffff168373ffffffffffffffffffffffffffffffffffffffff167f8c5be1e5ebec7d5bd14f71427d1e84f3dd0314c0f7b2291e5b200ac8c7c3b9258360405161087c9190610d79565b60405180910390a3505050565b6000610895848461062f565b90507fffffffffffffffffffffffffffffffffffffffffffffffffffffffffffffffff811461090f5781811015610901576040517f08c379a00000000000000000000000000000000000000000000000000000000081526004016108f89061119d565b60405180910390fd5b61090e84848484036106be565b5b50505050565b600073ffffffffffffffffffffffffffffffffffffffff168373ffffffffffffffffffffffffffffffffffffffff161415610985576040517f08c379a000000000000000000000000000000000000000000000000000000000815260040161097c9061122f565b60405180910390fd5b600073ffffffffffffffffffffffffffffffffffffffff168273ffffffffffffffffffffffffffffffffffffffff1614156109f5576040517f08c379a00000000000000000000000000000000000000000000000000000000081526004016109ec906112c1565b60405180910390fd5b610a00838383610b96565b60008060008573ffffffffffffffffffffffffffffffffffffffff1673ffffffffffffffffffffffffffffffffffffffff16815260200190815260200160002054905081811015610a86576040517f08c379a0000000000000000000000000000000000000000000000000000000008152600401610a7d90611353565b60405180910390fd5b8181036000808673ffffffffffffffffffffffffffffffffffffffff1673ffffffffffffffffffffffffffffffffffffffff16815260200190815260200160002081905550816000808573ffffffffffffffffffffffffffffffffffffffff1673ffffffffffffffffffffffffffffffffffffffff1681526020019081526020016000206000828254610b199190610f45565b925050819055508273ffffffffffffffffffffffffffffffffffffffff168473ffffffffffffffffffffffffffffffffffffffff167fddf252ad1be2c89b69c2b068fc378daa952ba7f163c4a11628f55a4df523b3ef84604051610b7d9190610d79565b60405180910390a3610b90848484610b9b565b50505050565b505050565b505050565b600081519050919050565b600082825260208201905092915050565b60005b83811015610bda578082015181840152602081019050610bbf565b83811115610be9576000848401525b50505050565b6000601f19601f8301169050919050565b6000610c0b82610ba0565b610c158185610bab565b9350610c25818560208601610bbc565b610c2e81610bef565b840191505092915050565b60006020820190508181036000830152610c538184610c00565b905092915050565b600080fd5b600073ffffffffffffffffffffffffffffffffffffffff82169050919050565b6000610c8b82610c60565b9050919050565b610c9b81610c80565b8114610ca657600080fd5b50565b600081359050610cb881610c92565b92915050565b6000819050919050565b610cd181610cbe565b8114610cdc57600080fd5b50565b600081359050610cee81610cc8565b92915050565b60008060408385031215610d0b57610d0a610c5b565b5b6000610d1985828601610ca9565b9250506020610d2a85828601610cdf565b9150509250929050565b60008115159050919050565b610d4981610d34565b82525050565b6000602082019050610d646000830184610d40565b92915050565b610d7381610cbe565b82525050565b6000602082019050610d8e6000830184610d6a565b92915050565b600080600060608486031215610dad57610dac610c5b565b5b6000610dbb86828701610ca9565b9350506020610dcc86828701610ca9565b9250506040610ddd86828701610cdf565b9150509250925092565b600060ff82169050919050565b610dfd81610de7565b82525050565b6000602082019050610e186000830184610df4565b92915050565b610e2781610c80565b82525050565b6000602082019050610e426000830184610e1e565b92915050565b600060208284031215610e5e57610e5d610c5b565b5b6000610e6c84828501610ca9565b91505092915050565b60008060408385031215610e8c57610e8b610c5b565b5b6000610e9a85828601610ca9565b9250506020610eab85828601610ca9565b9150509250929050565b7f4e487b7100000000000000000000000000000000000000000000000000000000600052602260045260246000fd5b60006002820490506001821680610efc57607f821691505b60208210811415610f1057610f0f610eb5565b5b50919050565b7f4e487b7100000000000000000000000000000000000000000000000000000000600052601160045260246000fd5b6000610f5082610cbe565b9150610f5b83610cbe565b9250827fffffffffffffffffffffffffffffffffffffffffffffffffffffffffffffffff03821115610f9057610f8f610f16565b5b828201905092915050565b7f45524332303a2064656372656173656420616c6c6f77616e63652062656c6f7760008201527f207a65726f000000000000000000000000000000000000000000000000000000602082015250565b6000610ff7602583610bab565b915061100282610f9b565b604082019050919050565b6000602082019050818103600083015261102681610fea565b9050919050565b7f45524332303a20617070726f76652066726f6d20746865207a65726f2061646460008201527f7265737300000000000000000000000000000000000000000000000000000000602082015250565b6000611089602483610bab565b91506110948261102d565b604082019050919050565b600060208201905081810360008301526110b88161107c565b9050919050565b7f45524332303a20617070726f766520746f20746865207a65726f20616464726560008201527f7373000000000000000000000000000000000000000000000000000000000000602082015250565b600061111b602283610bab565b9150611126826110bf565b604082019050919050565b6000602082019050818103600083015261114a8161110e565b9050919050565b7f45524332303a20696e73756666696369656e7420616c6c6f77616e6365000000600082015250565b6000611187601d83610bab565b915061119282611151565b602082019050919050565b600060208201905081810360008301526111b68161117a565b9050919050565b7f45524332303a207472616e736665722066726f6d20746865207a65726f20616460008201527f6472657373000000000000000000000000000000000000000000000000000000602082015250565b6000611219602583610bab565b9150611224826111bd565b604082019050919050565b600060208201905081810360008301526112488161120c565b9050919050565b7f45524332303a207472616e7366657220746f20746865207a65726f206164647260008201527f6573730000000000000000000000000000000000000000000000000000000000602082015250565b60006112ab602383610bab565b91506112b68261124f565b604082019050919050565b600060208201905081810360008301526112da8161129e565b9050919050565b7f45524332303a207472616e7366657220616d6f756e742065786365656473206260008201527f616c616e63650000000000000000000000000000000000000000000000000000602082015250565b600061133d602683610bab565b9150611348826112e1565b604082019050919050565b6000602082019050818103600083015261136c81611330565b905091905056fea26469706673582212206d5257445c123f96dee969d862a50ca8bb1a2d24dd1596133c102e196c77df2864736f6c634300080b0033a2646970667358221220744312b3a78cf73224c63691e3e3eb586a689380414531d49844e4d1d9dfc2bb64736f6c634300080b0033",
  "immutableReferences": {},
  "source": "//SPDX-License-Identifier: MIT\npragma solidity ^0.8.0;\n\nimport \"@openzeppelin/contracts/access/Ownable.sol\";\nimport \"./Token.sol\";\n\ncontract Generator is Ownable {\n    function createToken(\n        uint256 _supply,\n        string memory _name,\n        string memory _symbol\n    ) public returns (address) {\n        Token token = new Token(_supply, _name, _symbol);\n        address tokenAddress = token.getAddress();\n        return tokenAddress;\n    }\n\n    function destroy() public {\n        require(msg.sender == owner(), \"You are not the owner\");\n        selfdestruct(payable(owner()));\n    }\n}\n",
  "sourcePath": "D:\\work\\projects\\generator\\contracts\\Generator.sol",
  "compiler": {
    "name": "solc",
    "version": "0.8.11+commit.d7f03943.Emscripten.clang"
  },
  "schemaVersion": "3.4.4",
  "updatedAt": "2022-02-28T18:02:48.253Z",
  "networkType": "ethereum",
  "devdoc": {
    "kind": "dev",
    "methods": {
      "owner()": {
        "details": "Returns the address of the current owner."
      },
      "renounceOwnership()": {
        "details": "Leaves the contract without owner. It will not be possible to call `onlyOwner` functions anymore. Can only be called by the current owner. NOTE: Renouncing ownership will leave the contract without an owner, thereby removing any functionality that is only available to the owner."
      },
      "transferOwnership(address)": {
        "details": "Transfers ownership of the contract to a new account (`newOwner`). Can only be called by the current owner."
      }
    },
    "version": 1
  },
  "userdoc": {
    "kind": "user",
    "methods": {},
    "version": 1
  }
}